:020000040800F2
:1000000050070020D9010008DD010008DF010008C9
:10001000E1010008E3010008E5010008000000001C
:10002000000000000000000000000000E7010008E0
:10003000E901000800000000EB0100084909000880
:10004000EF010008EF010008EF010008EF010008D0
:10005000EF010008EF010008EF010008EF010008C0
:10006000EF010008EF010008EF010008EF010008B0
:10007000EF010008EF010008EF010008EF010008A0
:10008000EF010008EF010008EF010008EF01000890
:10009000EF010008EF010008EF010008EF01000880
:1000A000EF010008A9090008EF010008EF010008AE
:1000B000EF010008E50A0008EF010008EF01000861
:1000C000EF010008EF010008EF010008EF01000850
:1000D000EF0100080D0C0008EF010008EF01000817
:1000E000EF010008EF010008EF010008EF01000830
:1000F000EF010008EF010008EF010008EF01000820
:10010000EF010008EF010008EF010008EF0100080F
:10011000EF010008EF010008EF010008EF010008FF
:10012000EF010008EF010008EF010008EF010008EF
:1001300000F002F800F041F80AA090E8000C8244B8
:100140008344AAF10107DA4501D100F036F8AFF295
:10015000090EBAE80F0013F0010F18BFFB1A43F0A5
:10016000010318475412000074120000103A24BF13
:1001700078C878C1FAD8520724BF30C830C144BF0C
:1001800004680C607047000000230024002500264E
:10019000103A28BF78C1FBD8520728BF30C148BFEA
:1001A0000B607047642900F07780002070471FB50E
:1001B00001F075F81FBD10B510BD00F03BF91146F8
:1001C000FFF7F5FF00F0A0FD00F059F903B4FFF7C9
:1001D000F2FF03BC00F05CFD08480047FEE7FEE7C5
:1001E000FEE7FEE7FEE7FEE7FEE7FEE7FEE7FEE7E7
:1001F00003480449044A054B7047000031010008D8
:100200005001002050070020500300205003002020
:10021000704700000FB4044910B503AA029800F01B
:10022000D3F810BC5DF814FB080000202DE9F04164
:1002300004460E4600200AE0E1682046884738B3AD
:10024000252806D0D4E901219047206A401C20626D
:10025000F2E7E168204600278847050018D0A5F19D
:100260004100192802D820354FF40067324629464C
:1002700020462760FFF796FF40B1012804D0F61D05
:1002800026F007060836D7E7361DD5E72846D9E712
:10029000206ABDE8F08100002DE9F041804600268B
:1002A00010687529414615A512D0AFF300800028CB
:1002B00003DAC0F1000012A508E0D8F800108A07A0
:1002C00001D510A502E0490704D50FA5012601E0DC
:1002D000AFF30080002408F1240704E000F086F862
:1002E00030313955641C0028F8D133462A4621465E
:1002F0004046BDE8F04100F00DB8000000000000ED
:100300002D0000002B000000200000007047704707
:10031000704770472DE9F0470D46044692469946CE
:1003200000F124080168880604D5E06921F0100175
:10033000216000E001200027A84201DDA0EB0507B5
:10034000A16907EB050202EB0300A1EB0000A0612D
:100350002068C00602D42046AFF30080002608E0E3
:10036000D4E901211AF806009047206A401C761C47
:1003700020624E45F4DB2068C0060AD52046AFF364
:10038000008006E0D4E9012130209047206A401C1B
:100390002062381EA7F10107F4DC07E0D4E901214F
:1003A00018F805009047206A401C2062281EA5F11D
:1003B0000105F3DC2046AFF3008021680220090626
:1003C00000D40120BDE8F087074B70B50C467B4494
:1003D00000F019F80546204600F028F810B14FF05B
:1003E000FF3070BD284670BD1B0900004FF00A01A8
:1003F000B0FBF1F202FB11011046704701694A1C83
:1004000002610878704700B58FB0CDE90131002155
:10041000059105497944CDE9031011466846FFF777
:1004200005FF0FB000BD0000E5FFFFFFC06800F052
:1004300080007047754600F029F8AE460500694611
:10044000534620F00700854618B020B5FFF7D0FED0
:10045000BDE820404FF000064FF000074FF00008C5
:100460004FF0000B21F00701AC46ACE8C009ACE846
:10047000C009ACE8C009ACE8C0098D467047044625
:10048000AFF300802046FFF7A1FE00000048704750
:10049000EC00002001487047704700BFF0000020CA
:1004A0001648806940F004001449886114480068C7
:1004B000144900EA01001449C1F804081048006812
:1004C000124940EA01001049C1F804080846D0F872
:1004D000000820F47000C1F800080846D0F80008B1
:1004E00040F40000C1F80008094800684BF62001FC
:1004F00020EA01000449C1F80C08704700100240CE
:1005000004080140FF0F000F0000014000808880B8
:100510000C0801401448806940F0040012498861C9
:100520001248006820F070401149C1F800080846E0
:10053000D0F8000840F00040C1F800080846D0F8A4
:10054000040820F00F00C1F804080846D0F8040899
:1005500040F00800C1F804080846D0F80C0820F460
:10056000C070C1F80C08704700100240000801403C
:10057000000001400848006850B10848006818B100
:1005800002200749086006E003200549086002E0F0
:1005900001200349086070471C01214220012142CB
:1005A000140000200D48806940F020000B4988614C
:1005B0000B48006820F470600A49C1F8000408463E
:1005C000D0F8000440F44070C1F800040846D0F8A8
:1005D0000C0440F00400C1F80C0470470010024005
:1005E0000014014000100140374AD26942F0040271
:1005F000354BDA611A46926942F008029A61334A31
:10060000126822F07F42324BC3F8002C1A46D2F80F
:10061000002C42F03B42C3F8002C2E4A12682E4BAD
:1006200002EA03022A4BC3F8042C2A4A12682B4B15
:1006300042EA0302264BC3F8042C4FF08042A2F892
:100640002C08A2F82818B2F8182842F4C0424FF03B
:100650008043A3F818281A46B2F8182842F060021E
:10066000A3F818281A46B2F8182842F40062A3F832
:1006700018281A46B2F8182842F00802A3F81828D9
:100680001A46B2F8202842F01002A3F820281A4691
:10069000B2F8202842F00102114B1A804FF40042B8
:1006A0004FF08043A3F800284FF08042B2F80028B2
:1006B00042F00102A3F800281A46B2F8442842F496
:1006C0000042084B1A80704700100240000C0140A5
:1006D00000000140040C0140FF0000FF0033330024
:1006E000200800404408004000B50020154908617A
:1006F000C8601420486100208861C861084600680D
:1007000040F001000860084640680F4908400D4964
:100710004860084600680D4908400A4908600846D4
:10072000006820F4802008600846406820F4FE003D
:1007300048600020886000214FF0006000F060F801
:1007400000BD0000001002400000FFF8FFFFF6FEB1
:100750002DE9F0410746884614461D46284600F01C
:1007600035F8C5F1040007FA00F60F20284100EA29
:100770000800064306F00F06E21704EBD26252119E
:100780004FF0E02303EB8202D2F800212146E31769
:1007900004EBD3635B11A4EB431C012303FA0CF3BA
:1007A0001A432046E31704EBD3635B114FF0E02CB0
:1007B0000CEB8303C3F800210348005D40EA0610F8
:1007C00001490855BDE8F08100E400E00146072337
:1007D00023EA01021202084B18684FF6FF0300EAF1
:1007E0000300064B40EA030040EA02004FF0E0231A
:1007F000C3F80C0D704700000CED00E00000FA0596
:10080000024A0A400243024B1A60704780FFFF1FF2
:1008100008ED00E000B503460A462248834201DAAB
:10082000034604E041F6BC30834200DD03461D4828
:10083000824201DA024604E041F6BC30824200DD29
:100840000246002B08DA0120174908604FF000002B
:100850001649C1F8B40107E00020134908604FF0C1
:1008600001001249C1F8B401184600F071FA1049AC
:100870000880002A08DA00200E4908604FF00100C5
:100880000A49C1F8AC0107E001200A4908604FF0AD
:1008900000000649C1F8AC01104600F059FA0649BB
:1008A000088000BD44E4FFFFB08121420080214266
:1008B00038080040A88121423408004030B5044681
:1008C0000025FFF711FF1E48006840F480301C49E6
:1008D000086000BF1A480068400CFBD04FF48060ED
:1008E00017494860A01EC4B20846406840EA8440E8
:1008F00048600846406840F480304860114800680D
:1009000040F032000F4908600D48006840F08070E8
:100910000B49086000BF0A480068400EFBD0084839
:10092000406840F002000649486005E0044840681D
:10093000C0F3870505F00305022DF7D130BD000097
:1009400000100240002002407047000070B50446CD
:100950000D461248806940F40060104988611048D3
:1009600004801048A0F8285CB0F80C0C40F001009E
:100970000C49A1F80C0C0846B0F8000C40F001003E
:10098000A1F8000C4FF002034FF019024FF00301E1
:100990004FF00100FFF7DCFE70BD000000100240C8
:1009A0002C2C01400020014010B54448008810F074
:1009B000010F7BD04248006808B9012000E0002008
:1009C0003F4908603F480068012869D0022802D0EA
:1009D00003286AD151E03C4800684FF4FA7100FBEB
:1009E00001F03A49D1F8301101EBC10202EB0111DB
:1009F00000EB810134480068344AD2F8302100FB12
:100A000002F0C0EB001000EB800001EB00102F495A
:100A1000D1F82C1101EBC10202EB0111A0EB810016
:100A20002A49D1F83C1101EB4102C2EBC111A0EB04
:100A3000810127480068254AD2F82C2100FB02F0EA
:100A4000C0EB001000EB8000A1EB00142CB121489A
:100A5000006820441F49086002E000201D4908602A
:100A60001D4A12681B4B1B68D11A1B4A1268194B8E
:100A70001B68D018FFF7CEFE17E01848006838B999
:100A800015480068414214480068FFF7C3FE04E0BF
:100A9000114801680068FFF7BDFE06E006E0FFE7C9
:100AA00000210846FFF7B6FE00BF00BF03480088DC
:100AB00020F001000A49A1F8100C10BD102C0140D3
:100AC000888122421400002034012142000021428A
:100AD0003C0121420C00002018000020140121429A
:100AE0000020014010B53E4804883E48007810F0D0
:100AF000800F70D114F0010F2DD03A48007810F01B
:100B0000400F28D03748007800F03F003F281DD123
:100B10003448007840F08000324908704FF6FF708A
:100B2000314908800846008800EB001040004FF46F
:100B3000FA6190FBF1F02D490880084601882CA04D
:100B4000FFF768FB00202749087004E0254800787B
:100B5000401C2449087014F0020F3CD02148007852
:100B600010F0400F26D01F48007840F080001D494B
:100B700008702348008820F002004FF08041A1F85F
:100B8000200420480088184908800846008800EBA7
:100B900000104FEA40004FF4FA6190FBF1F0134966
:100BA00008800846018812A0FFF734FB00200D4999
:100BB000087010E000200C490880402009490870A6
:100BC0000020114908804FF08040B0F8200440F028
:100BD00002000B49088000200149088010BD000078
:100BE000100400401C000020200000201E000020F7
:100BF000484947483A256420636D0D0A000000000B
:100C00002004004034040040240400401C490988AA
:100C100011F0200F33D01B490988C8B21A4909883E
:100C200011F4004F2BD11849098811F4804F0CD0D2
:100C30000A2803D00021144A118020E012490988B3
:100C400041F40041104A118019E00D2806D10E49E7
:100C5000098841F480410C4A118010E00A49098852
:100C6000C1F30D01094A505407490988491C064A35
:100C7000118011460988C72901DD002111807047C4
:100C80000038014004380140040000202400002006
:100C9000014600BF704700004FF0E021096921F0D4
:100CA00004014FF0E0221161C21700EB5272D21022
:100CB0000C4B1A70194609784FF47A7251430A4A5C
:100CC00011804FF0E021096941F001014FF0E0226D
:100CD0001161194609784FF47A725143024A118022
:100CE00070470000000000200200002000BF044AFE
:100CF000128812F0400FFAD0C2B2024B1A8070472D
:100D000000380140043801400920FFF7D7FD482092
:100D1000FFF7C2FF4FF41651482000F021F8FFF70B
:100D200041FCFFF7F7FB002141F61F40FFF75CFC99
:100D3000FFF7B6FB41F61F410920FFF707FE41F21E
:100D400070710846FFF766FD01E0FFF713FCFCE752
:100D50000146002901DA484200E0084670470000D9
:100D60002DE9F05F05460E46300100F0BDF98146E1
:100D7000354905FB01F000F0B7F98246494600F01D
:100D8000D1F80746384600F08FF984B2204600F0CB
:100D9000ABF98346394600F08EFA82464FF0834124
:100DA00000F0B6F9814600F07FF98046240104EB9B
:100DB000080084B22548806940F004002349886116
:100DC0000846806940F4804088612148006820F42A
:100DD0007F602049C1F804080846D0F8040840F4B0
:100DE0000B60C1F804081948C06840F480401749F6
:100DF000C8600846C06820F48040C8601648A0F863
:100E000008481648008842F20C0140EA01001249E5
:100E1000A1F80C080846B0F80C0840F48070A1F85E
:100E20000C080846B0F80C0840F020000B49088078
:100E30004FF002034FF025024FF003010846FFF781
:100E400087FCBDE8F09F000040420F000010024008
:100E50000408014000000140003001400C3801400E
:100E600090EA010F48BF81F0004100F13682421A3A
:100E70003CBF801A89184FEAD0524FF07F4C1CEAD1
:100E8000410FA2EBD15318BF9CEA026F00F03B80E8
:100E90004FF0004C4CEA00204CEA012121FA03FCFF
:100EA00010EB0C0C1ED202F1FF325FEA1C2040EB6B
:100EB000C25038BF70471CF07F0F4FEA400C18BF7C
:100EC000BCF17F4F38BF7047C3F12003994008BF82
:100ED00020F00100BCF17F4F38BF7047A0F1C04047
:100EE00000F0E4B94FEA3C00000A40EBC25028BFD2
:100EF0001CF0FF0F4FEA400CE6D018BFBCF17F4F4B
:100F000038BF7047EAE79CEA026F05D010EA5C0F31
:100F100008BF00F00040704710B500F07AF900BF3C
:100F200064FBBE3E4FF47F0C1CEAD0121EBF1CEACD
:100F3000D11392EA0C0F93EA0C0F00F0858090EA2F
:100F4000010F48BF42F4807240F4000C41F40000ED
:100F50002CF07F4120F07F4000B58142A2EB0302DC
:100F60000FF2081CACEB504EC0F100009EF800E000
:100F70004FEA4E0E00FB0EFC38BF49004FEA2C1C16
:100F800002F5FA020CFB0EF34FEACE1E4FEA112CCB
:100F90004FEAC1210EEB635E42EB22420EFB0CFCDA
:100FA0004FEA1C5300FB03114FEA112C4FEA0131A9
:100FB0000EFB0CFC4FEADC4C00FB0C11C14228BFBD
:100FC00009184CEB03335DF804EB10EB410143EBE4
:100FD000C250B2F57C0F38BF704729D512F0F00F20
:100FE0001CBF00F1C04000F00040704700818283C8
:100FF0008485868788898B8C8D8E8F919293959628
:1010000097999A9C9D9FA0A2A3A5A7A8AAACAEB0B1
:10101000B2B3B5B7B9BCBEC0C2C5C7C9CCCED1D4B6
:10102000D7D9DCDFE2E6E9ECF0F3F7FAFE000000E6
:101030004FEA400C0CF1807CBCF17E4F28BF70471A
:10104000B0F1C04000F032B990EA010F0CEAD113C0
:1010500048BF42F48072624538BF634507D213F43B
:101060007F0F16D080EA010000F00040704710B5F5
:1010700000F0CFF8097EFC3E00F005B880EA0100E0
:1010800000F00040704780EA010000F0004000F0EE
:101090000DB912F47F0F04BF0248704780EA0100C7
:1010A00000F004B90000C07FC10DD1F19E0206DB43
:1010B0004FEA002343F0004323FA02F07047004256
:1010C00007D54FEA4001B1F1FE4F02D24FF00000C8
:1010D000704710B500F09DF84992248000207047B9
:1010E0006FEA200070470000B0FA80F310FA03F2B4
:1010F000C3F19D030AD0D90501EB1220530638BF76
:10110000704700F1010008BF20F0010070470000A7
:101110004FF47F0C1CEAD0121EBF1CEAD11392EAD6
:101120000C0F93EA0C0F00F0478090EA010F48BFC4
:1011300042F480724FF0004C4CEA00204CEA01214E
:1011400002EB0302A0FB0113A2F50002002918BF65
:1011500043F001035B0028BF4FEA330342EB224216
:101160005FEA132C4CEBC2502EBFBCEB436FB2F5C1
:101170007C0F70474FEA036CBCF1004F08BF20F0B2
:101180000100B2F57C0F38BF70470BD582F0FF022B
:1011900012F5803FC8BF704700F1C040D8BF00F0D3
:1011A0000040704700F5000C5FEA4C0C48BF7047E8
:1011B000B0F1C04000F07AB890EA010F0CEAD11308
:1011C00048BF42F48072624538BF634504D280EA6A
:1011D000010000F00040704710B500F01AF800BFA1
:1011E0008900013E00F007B800F009B85FEA410C41
:1011F0005FEA1C6C08D080EA010000F057B85FEA93
:10120000400C5FEA1C6CF6D14FF00040A0F5800066
:1012100070470EF1020E2EF0030E5EF8044B2442CE
:1012200004D44FEA4102B2F17F4F11D84FEA400394
:10123000B3F17F4F0CD80ED14FEAD07CB2F17F4F83
:101240000CEB4C0C0CF1020C08BF4CEBD17C04E015
:101250004FF0080C01E04FEAD17C0CEB4C0324FA70
:1012600003F404F00704B4F1040C06D20EEB840C72
:10127000BDE810404CF0010C6047DFE80CF00708B7
:1012800002024FF00040A0F5800010BD0846420069
:1012900018BFD2F1807288BF00F0004010BD10B5B9
:1012A000FFF7F8F84FF00001016010BDFF2141EA9F
:1012B000D050C005704780F0004090EA010F7FF5E4
:1012C000D6AD81F0004100F008B8000090EA010FAF
:1012D00048BF81F000413FF5CAAD421A04D882F000
:1012E0000042A0EB020011444FEAD0524FF07F4C75
:1012F0001CEA410FA2EBD15318BF9CEA026F4AD0FF
:101300004FF0004C4CEA00204CEA012121FA03FC8A
:10131000B0EB0C0C0FD412F0FE0F36D05FEA4C008D
:101320001DD5001240EBC25038BF70471CF03F0F74
:1013300018BF70470BE0A2F101025FEA1C2040EBEE
:10134000C25038BF70471CF07F0F18BF7047C3F101
:101350002003994014BF401E20F001007047800810
:101360004FEA122308BF7047B0FA80FCA2EB0C02D0
:10137000CCF1280C60FA0CF093EA122F04BF00EBBA
:10138000C25070474FEAC3707047130A5FEADC101F
:1013900008BF7047F6E79CEA026F04D010EA5C0FC2
:1013A00008BF0020704710B5FFF733FF40DFF63E5F
:1013B00081F0004070470000D813000800000020B2
:1013C000240000006C010008FC1300082400002029
:1013D0002C07000088010008000000000000000049
:1013E00000000000000000000000000001000000FC
:0C13F0007017000000002E00000000003C
:0400000508000131BD
:00000001FF
